:03000000020C5E91
:0C0C5E00787FE4F6D8FD758130020CA50B
:100AF00043757272652054656D3A004B65792052DA
:100B00006F77204572726F72210055707065722088
:100B100054656D3A004C6F7765722054656D3A00EC
:100B20004B657920436F6C204572726F72210049CA
:100B30006E7075742056616C3A00706572612E2E6D
:100B40002E0043616E63656C20696E707574204F72
:100B50004B2100496E7075742045727221005365F7
:100B6000742055707065725F74204F4B210053657F
:100B700074204C6F7765725F74204F4B2100546571
:100B80006D702053657420457272210054656D703C
:100B90002049732044656661756C740055707065FA
:100BA00072204F52204C6F7765723F004572722D54
:030BB0002D2D00E8
:100E23000425422000000421417000000429000031
:100E33000000042D00000000C101C102C104C10073
:020E4300C18369
:10090800C2AFD2B4D2B5D2B3120E63120CEA120E31
:10091800BB120E001204C22000FA120BB3300314EB
:100928007A0A7BF0E4FDFF120D3B120A117F0112D7
:100938000E7C801B7A0A7BF0E4FDFF120D3B120A45
:10094800117F01120E7C7B2D7D017F09120D8AAF6C
:1009580024AE23AD22AC21AB2CAA2BA92AA829129C
:1009680002A15037C2B4C2B5120E63120E63D2B4DC
:10097800D2B5120E63120E63120BB3120A117F0165
:10098800120E7CAF24AE23AD22AC21AB2CAA2BA92E
:100998002AA8291202A150CC02091CAF28AE27AD03
:1009A80026AC25AB2CAA2BA92AA8291202A1604D96
:1009B800404BC2B4C2B5120E63120E63120E63121C
:1009C8000E63120E63D2B4D2B5120E63120E631206
:1009D8000E63120E63120E63120BB3120A117F011B
:1009E800120E7CAF28AE27AD26AC25AB2CAA2BA9BE
:1009F8002AA8291202A160BA40B802091C120E6383
:090A0800120E63120E6302091CB8
:100EA8008F1C120E93851CA0D2B0C2B1C2B2C2B2BE
:030EB800D2B22291
:060E46007D017C007F012C
:100E4C008F1CED4C6003120E93851CA0C2B0C2B176
:070E5C00C2B2C2B2D2B22201
:100E930075A0FFC2B0D2B1C2B2C2B2D2B2E5A02035
:050EA300E7FBAFA022F7
:100CEA00E4F5A0FDFC7F38120E4C120EBBE4FDFCAD
:100CFA007F38120E4C120EBBE4FDFC7F38120E4CEC
:100D0A00120EBB7D017C007F38120E4C7D017C00E7
:100D1A007F08120E4C120E467D017C007F06120ED1
:0A0D2A004C7D017C007F0C020E4C92
:100D7400120204E4FBFA7940784212000A12035882
:060D8400AB07E4FD7F0A4D
:100D8A008B1B53050153070FED60034307404307CD
:0C0D9A0080E4FDFC120E4CAF1B020EA802
:070D34007A0B7B2FE4FDFFA9
:080D3B008F168D178A188B1921
:100D4300E4F51A53170153160FE519251AF582E432
:100D53003518F583E493FBC394204014E516D3942C
:100D63000F50E6AD17AF16120D8A051A051680D976
:010D7300225D
:100E7C008F0B530B017BDFAD0B7F0E120D8A7B4367
:070E8C00AD0B7F0F020D8A80
:1004C200750A6B7590F0E59064F0700302090712EB
:1004D2000EBBE59064F07003020907859008120EC6
:1004E20046D200E5082490700302059F24C060767E
:1004F20024E0603B24F0600302062D75900F859086
:1005020009E590B40FFBE50924F9601D24FC601392
:1005120024FE600914704C750A01020638750A043B
:10052200020638750A07020638750A63020638752C
:10053200900F859009E590B40FFBE50924F9601D41
:1005420024FC601324FE6009147018750A02020666
:1005520038750A05020638750A08020638E4F50AF3
:1005620002063802062775900F859009E590B40FB0
:10057200FBE50924F9601D24FC601324FE600914C4
:100582007018750A03020638750A06020638750ADB
:1005920009020638750A6F02063802062775900F9F
:1005A200859009E590B40FFBE50924F9601B24FC52
:1005B200601224FE600914706C750A6802063875B0
:1005C2000A6C8072750A78806D750A6B7A0B7B0AE9
:1005D200E4FDFF120D3B85281185271085260F8526
:1005E200250EE4FDFC7F0A120A23E4FF120E7C7A38
:1005F2000B7B157D05E4FF120D3B8524118523102D
:1006020085220F85210E120A1D7F01120E7C120E09
:1006120063120E63120E63120E63C200C201C202A3
:10062200120E4680117A0A7BFB80047A0B7B207DB6
:1006320005E4FF120D3BE50A249D604624F8700391
:1006420002090414601F24FD700302070A24F760E4
:100652003E241060030207B0D201C202120D347AA6
:100662000B7B0A800BC201D202120D347A0B7B156E
:100672007D01E4FF120D3B7A0B7B3A7D017F09027B
:1006820007BD7A0B7B42E4FDFF120D3B02078AE4B1
:10069200FFFEFDFC782D1204901202A16060D204CC
:1006A200300109120D347A0B7B0A800A30021912CA
:1006B2000D347A0B7B157D01E4FF120D3B7A0B7B27
:1006C2003A7D017F09120D3BE4FBFA79207841C0A3
:1006D20000782D120484D000120D74782D12048437
:1006E2001203587C007D0A120440ED2430FBE4FD25
:1006F2007F0B120D8A7B2EE4FD7F0C0208D97A0B48
:100702007B53E4FDFF0207BDE4FFFEFDFC782D12E2
:1007120004901202A170030207A7300113782D1270
:1007220004848F288E278D268C257A0B7B5E80147D
:10073200300217782D1204848F248E238D228C216F
:100742007A0B7B6EE4FDFF120D3BAF24AE23AD228C
:10075200AC21AB28AA27A926A8251202A15029E478
:10076200F528F527752620752542F524F5237522EF
:10077200A07521417A0B7B7EFDFF120D3B7A0B7B2C
:100782008C7D01E4FF120D3B782D1204A9000000BC
:1007920000C201C202C204C200120E63120E631230
:1007A2000E460209047A0B7B53E4FDFF800D200103
:1007B2001020020D7A0B7B9CE4FDFF120D3B020917
:1007C20004300109120D347A0B7B0A800A300219B7
:1007D200120D347A0B7B157D01E4FF120D3B7A0B6F
:1007E2007B3A7D017F09120D3BE4FFFEFDFC782D73
:1007F2001204901202A17022AF0AFEFC7D0A1203BB
:10080200D9AC06AD07E412031F782D12049DE50A48
:100812002430FBE4FD7F0A0208D930044B782D1204
:100822000490C000C001C002C003AC0AE412032459
:100832007BCD7ACC79CC783D1200FBD003D002D0AC
:1008420001D00012000A782D12049D782D12048422
:100852008F118E108D0F8C0EE4FDFC7F0A120A237D
:10086200E4FF120E7C020904E4FFFE7D207C417845
:100872002D1204901202A14063E4FFFE7DC87C4267
:10088200782D1204901202A15052782D120490C0B9
:1008920000C001C002C003AC0AE4120324D003D09A
:1008A20002D001D00012000A782D12049DE4FBFA56
:1008B20079207841C000782D120484D000120D7482
:1008C200782D1204841203587C007D0A120440ED34
:1008D2002430FBE4FD7F0B120D8A80267A0B7B7E8F
:1008E200E4FDFF120D3B7A0B7B8C7D01E4FF120DC0
:1008F2003B782D1204A900000000C201C202C2040A
:05090200C2007590F039
:0109070022CD
:100A1100852C11852B10852A0F85290E7D017C00DF
:020A21007F0A4A
:060A23008F0B8C0C8D0D01
:100A2900E4FFFE7DC87C42AB11AA10A90FA80E12E3
:100A390002A1600D400BAD0D7A0B7BACAF0B020D23
:100A49003BAF11AE10AD0FAC0EE4FBFA79C878429A
:100A59001200FB8F118E108D0F8C0E120358AB07ED
:100A6900AA067C037DE81203EB8F827C037DE8AF45
:100A790003AE021203EB7E007F64CFCDCFCECCCE86
:100A89001203EB8E128F13AE02AF037C037DE812C3
:100A990003EB7E007F64CFCDCFCECCCE1203EB7EAD
:100AA900007F0ACFCDCFCECCCE1203EB8E148F159B
:100AB900AD0DAF82EF2430FBAF0B120D8AE50B04AD
:100AC900FFAD0DE5132430FB120D8AE50B2402FF5F
:100AD900AD0D7B2E120D8AE50B2403FFAD0DE51537
:060AE9002430FB120D8A0F
:010AEF0022E4
:100E0000E4F50CD2B37F08120ED5C2B37F50120E98
:100E1000D5D2B37F05120ED5A2B3E433F50C7F14FF
:030E2000020ED5EA
:100DA600E4F50CF50D750C08D2B37F01120ED5C211
:100DB600B3E50DC313F50DD2B330B303430D807FF6
:0F0DC60004120ED5150CE50CD3940050DBAF0DC5
:010DD50022FB
:020DD6008F0C80
:100DD800E4F50D750D08C2B3E50C1392B37F051247
:100DE8000ED5D2B3E50CC313F50C150DE50DD39450
:080DF8000050E37F04020ED558
:100BB300E4F508FDF509F50AF52CF52BF52AF529D9
:100BC300120E007FCC120DD67F44120DD6120E6387
:100BD300120E63120E007FCC120DD67FBE120DD6FD
:100BE300120DA68F08120DA6AD07EDFEE508FBEB6F
:100BF300FFEDD3947F4011EFF4FFEEF4FEEF2401F9
:100C0300FFE43EFEC2038002D203AD07AC06E4124A
:100C1300031FE4FBFA7980783D1200FB8F2C8E2BA7
:100C23008D2A8C29E4FFFE7D207C41AB2CAA2BA9C5
:100C33002AA8291200FBE4FBFAF9783F12000A8F75
:100C43002C8E2B8D2A8C297BCD7ACC79CC783D12B6
:0A0C530000FB8F2C8E2B8D2A8C29BC
:010C5D002274
:0A0ED500EFD3940040031F80F722C2
:0E0EBB007FB07E15EF1FAC0670011E4C70F666
:010EC9002206
:100E63007D05AC051DEC60107E1C7F65EF1FAA0697
:080E730070011E4A60EC80F4DE
:010E7B002254
:0B0ECA000000000000000000DFF62226
:100003000203C4E86480F8E933E83360110460F064
:10001300ED33EC337009E8FCE9FDEAFEEBFF220463
:1000230060DED3EB9FEA9EE99DE8C2E78CF0C2F75E
:1000330095F0400CE8CCF8E9CDF9EACEFAEBCFFB2A
:1000430012038F85D0F05804700320D5B3E80470F1
:10005300075002B2D50203CE92D5EC0460F7E4CC8C
:10006300C0E0C398F8603B94186008400DD0E0FBF3
:100073000203A6E4FBFAC9FC8028E830E406E4C9DD
:10008300FBE4CAFCE830E305E4C9CACBFCE8540747
:100093006010F8C3E913F9EA13FAEB13FBEC13FC52
:1000A300D8F130F52FC3E49CFCEF9BFFEE9AFEEDF5
:1000B30099FDD0E0FBEF4E4D4C701222DB0302039F
:1000C300CBEC2CFCEF33FFEE33FEED33FDED30E7ED
:1000D300EB0203A6EF2BFFEE3AFEED39FDD0E0FB7A
:1000E30050130BBB00030203CEED13FDEE13FEEF23
:0800F30013FFEC13FC0203A64D
:1000FB00EC4D6011E8497017ED33EC3304600DE4FF
:10010B00FCFFFEFD22E933E8330470F80203C4124E
:10011B00038F58046009E4CC24815006285009024F
:10012B0003CE2840030203CBC0E0EB4A7044B980F6
:10013B0006D0E0FB0203BAEF4E701CBD8008EBFF4C
:10014B00EAFEE9FD80EBE98DF0A4FEE5F00201E4A7
:10015B00E9CDF9EAFEEBFFEF89F0A4FCE5F0CE89DF
:10016B00F0A42EFFE435F0CD89F0A42DFEE435F09C
:10017B008067EF4E7005BD80D780C3EF8BF0A4ACCA
:10018B00F0EE8BF0A42CFCE435F0F8EF8AF0A42C05
:10019B00E5F038FCE433CB8DF0A42CFCE5F03BF818
:1001AB00EE8AF0A42CFCE5F038F8E433CF89F0A408
:1001BB002CFCE5F038CF3400CE89F0A42FFFE5F00E
:1001CB003EFEE433C98DF0A42EFEE5F039CD8AF066
:1001DB00A42FFFE5F03EFEE43DFD33D0E0FB5007DE
:1001EB000BBB000F0203CEEC2CFCEF33FFEE33FE08
:0601FB00ED33FD0203A636
:100201000203CEEC5D046005E8590470030203C4E7
:1002110012038F580460F6EC4860F2EC7004FDFEA6
:10022100FF22C860DB2481C85009C39860025006D0
:100231000203CB9850CAF582E9294B4A7005AB827B
:100241000203BA75F0007C1A7880C3EF9BEE9AED39
:1002510099400DC3EF9BFFEE9AFEED99FDE842F048
:10026100DC23ACF0D0E0FFD0E0FED0E0FDAB82209B
:10027100E7101BEB60BAEC2CFCEF33FFEE33FEED25
:1002810033FD0203A6E803F830E705C0F075F0007E
:10029100EF2FFFEE33FEED33FD40B830E7C280AA09
:1002A10074F8CC6480CCC86480C8F58204604FC304
:1002B100EB9FF5F0EA9E42F0E99D42F0E89C45F0A3
:1002C100603C501DE5825FFFE582D313CB5BCBF42D
:1002D1002B5582FB50280ABA002409B90020088056
:1002E1001DE5825BFBE582D313CF5FCFF4C3132FF0
:1002F1005582FF50090EBE00050DBD00010CC3EB78
:100301009FF5F0EA9E42F0E99D42F0E89C45F060DD
:0903110007CC4820E701B3EC22FF
:10031A0075F020800E75F010800575F0087D007E5E
:10032A00007F003392D530D503120476EC334010A7
:10033A00EF33FFEE33FEED33FDEC33FCD5F0ED2267
:0E034A00E5F0247EA2D513CC92E7CDCEFF22A3
:10035800EDD2E7CD33EC3392D524814006E4FFFE9D
:10036800FDFC22FCE4CFCECDCC24E0501174FF80FC
:10037800EDC3CC13CCCD13CDCE13CECF13CF047099
:07038800F030D5DE0204761F
:10038F00E9D2E7C933E833F892D5EDD2E7CD33ECB4
:07039F0033FC5002B2D5222D
:1003A600EC30E7100FBF000C0EBE00080DBD0004B8
:1003B6000BEB6014A2D5EB13FCED92E7FD2274FF64
:1003C600FCFDFEFF22E480F8A2D574FF13FC7D80BD
:0303D600E480EFD1
:100C6A00020908E493A3F8E493A34003F68001F28F
:100C7A0008DFF48029E493A3F85407240CC8C3338B
:100C8A00C4540F4420C8834004F456800146F6DF5A
:100C9A00E4800B0102040810204080900E23E47EB9
:100CAA00019360BCA3FF543F30E509541FFEE4934F
:100CBA00A360010ECF54C025E060A840B8E493A316
:100CCA00FAE493A3F8E493A3C8C582C8CAC583CA41
:100CDA00F0A3C8C582C8CAC583CADFE9DEE780BEF9
:010E450000AC
:1003D900EF8DF0A4A8F0CF8CF0A428CE8DF0A42E38
:0203E900FE22F2
:1003EB00BC000BBE0029EF8DF084FFADF022E4CCF6
:1003FB00F875F008EF2FFFEE33FEEC33FCEE9DECBF
:10040B00984005FCEE9DFE0FD5F0E9E4CEFD22ED04
:10041B00F8F5F0EE8420D21CFEADF075F008EF2F4E
:10042B00FFED33FD4007985006D5F0F222C398FD3F
:05043B000FD5F0EA22DC
:10044000C2D5EC30E709B2D5E4C39DFDE49CFCEED7
:1004500030E715B2D5E4C39FFFE49EFE1203EBC361
:10046000E49DFDE49CFC80031203EB30D507C3E45C
:060470009FFFE49EFE2246
:0E047600C3E49FFFE49EFEE49DFDE49CFC2297
:0C048400E6FC08E6FD08E6FE08E6FF22A4
:0D049000E6FB08E6F908E6FA08E6CBF822DC
:0C049D00ECF608EDF608EEF608EFF6228B
:1004A900D083D082E493F608740193F6087402931A
:0904B900F608740393F674047351
:00000001FF
