:03000000020C38B7
:0C0C3800787FE4F6D8FD758130020C7F57
:100ACA0043757272652054656D3A004B6579205200
:100ADA006F77204572726F722100557070657220AF
:100AEA0054656D3A004C6F7765722054656D3A0013
:100AFA004B657920436F6C204572726F72210049F1
:100B0A006E7075742056616C3A00706572612E2E93
:100B1A002E0043616E63656C20696E707574204F98
:100B2A004B2100496E70757420457272210053651D
:100B3A00742055707065725F74204F4B21005365A5
:100B4A0074204C6F7765725F74204F4B2100546597
:100B5A006D702053657420457272210054656D7062
:100B6A002049732044656661756C74005570706520
:100B7A0072204F52204C6F7765723F004572722D7A
:030B8A002D2D000E
:100DFD00042542200000042141A000000429000028
:100E0D000000042D00000000C101C102C104C10099
:020E1D00C1838F
:1008E900C2AF120E3D120CC4120E99120DDA120487
:1008F900C22000FA120B8D3003147A0A7BCAE4FD78
:10090900FF120D151209EB7F01120E5A801B7A0A8C
:100919007BCAE4FDFF120D151209EB7F01120E5A75
:100929007B2D7D017F09120D64AF24AE23AD22AC6E
:1009390021AB2CAA2BA92AA8291202A15038AF242D
:10094900AE23AD22AC21AB2CAA2BA92AA8291202CD
:10095900A1509BC2B4C2B5120E41120E41120E41F2
:10096900120E3D120E41120E41120B8D1209EB7F30
:1009790001120E5A80C8AF28AE27AD26AC25AB2C84
:10098900AA2BA92AA8291202A1604B4049AF28AE77
:1009990027AD26AC25AB2CAA2BA92AA8291202A17E
:1009A900600250030208F7C2B4C2B5120E41120E1A
:1009B90041120E41120E41120E41120E3D120E410C
:1009C900120E41120E41120E41120B8D1209EB7FCC
:1009D90001120E5A80B7120E41120E41120E410237
:0209E90008F70D
:100E86008F1C120E71851CA0D2B0C2B1C2B2C2B202
:030E9600D2B222B3
:060E20007D017C007F0152
:100E26008F1CED4C6003120E71851CA0C2B0C2B1BE
:070E3600C2B2C2B2D2B22227
:100E710075A0FFC2B0D2B1C2B2C2B2D2B2E5A02057
:050E8100E7FBAFA02219
:100CC400E4F5A0FDFC7F38120E26120E99E4FDFC1B
:100CD4007F38120E26120E99E4FDFC7F38120E2680
:100CE400120E997D017C007F38120E267D017C0056
:100CF4007F08120E26120E207D017C007F06120E44
:0A0D0400267D017C007F0C020E2604
:100D4E00120204E4FBFA7940784212000A120358A8
:060D5E00AB07E4FD7F0A73
:100D64008B1B53050153070FED60034307404307F3
:0C0D740080E4FDFC120E26AF1B020E8670
:070D0E007A0B7B09E4FDFFF5
:080D15008F168D178A188B1947
:100D1D00E4F51A53170153160FE519251AF582E458
:100D2D003518F583E493FBC394204014E516D39452
:100D3D000F50E6AD17AF16120D64051A051680D9C2
:010D4D002283
:100E5A008F0B530B017BDFAD0B7F0E120D647B43AF
:070E6A00AD0B7F0F020D64C8
:1004C200750A6B7590F0E59064F070030208E8120B
:1004D2000E99E59064F070030208E8859008120E08
:1004E20020D200E5082490700302059F24C06076A4
:1004F20024E0603B24F0600302062D75900F859086
:1005020009E590B40FFBE50924F9601D24FC601392
:1005120024FE600914704C750A01020638750A043B
:10052200020638750A07020638750A63020638752C
:10053200900F859009E590B40FFBE50924F9601D41
:1005420024FC601324FE6009147018750A02020666
:1005520038750A05020638750A08020638E4F50AF3
:1005620002063802062775900F859009E590B40FB0
:10057200FBE50924F9601D24FC601324FE600914C4
:100582007018750A03020638750A06020638750ADB
:1005920009020638750A6F02063802062775900F9F
:1005A200859009E590B40FFBE50924F9601B24FC52
:1005B200601224FE600914706C750A6802063875B0
:1005C2000A6C8072750A78806D750A6B7A0A7BE410
:1005D200E4FDFF120D1585281185271085260F854C
:1005E200250EE4FDFC7F0A1209FDE4FF120E5A7A81
:1005F2000A7BEF7D05E4FF120D158524118523107A
:1006020085220F85210E1209F77F01120E5A120E52
:1006120041120E41120E41120E41C200C201C2022B
:10062200120E2080117A0A7BD580047A0A7BFA7D29
:1006320005E4FF120D15E50A249D604624F87003B7
:100642000208E514601F24FD700302070A24F76004
:100652003E241060030207B0D201C202120D0E7ACC
:100662000A7BE4800BC201D202120D0E7A0A7BEFE2
:100672007D01E4FF120D157A0B7B147D017F0902C7
:1006820007BD7A0B7B1CE4FDFF120D1502078AE4FD
:10069200FFFEFDFC782D1204901202A16060D204CC
:1006A200300109120D0E7A0A7BE4800A3002191217
:1006B2000D0E7A0A7BEF7D01E4FF120D157A0B7B9A
:1006C200147D017F09120D15E4FBFA79207841C0EF
:1006D20000782D120484D000120D4E782D1204845D
:1006E2001203587C007D0A120440ED2430FBE4FD25
:1006F2007F0B120D647B2EE4FD7F0C0208BA7A0B8D
:100702007B2DE4FDFF0207BDE4FFFEFDFC782D1208
:1007120004901202A170030207A7300113782D1270
:1007220004848F288E278D268C257A0B7B388014A3
:10073200300217782D1204848F248E238D228C216F
:100742007A0B7B48E4FDFF120D15AF24AE23AD22D8
:10075200AC21AB28AA27A926A8251202A15029E478
:10076200F528F527752620752542F524F5237522EF
:10077200A07521417A0B7B58FDFF120D157A0B7B78
:10078200667D01E4FF120D15782D1204A900000008
:1007920000C201C202C204C200120E41120E411274
:1007A2000E200208E57A0B7B2DE4FDFF800D20016F
:1007B2001020020D7A0B7B76E4FDFF120D15020864
:1007C200E5300109120D0E7A0A7BE4800A30021923
:1007D200120D0E7A0A7BEF7D01E4FF120D157A0BE2
:1007E2007B147D017F09120D15E4FFFEFDFC782DBF
:1007F2001204901202A17022AF0AFEFC7D0A1203BB
:10080200D9AC06AD07E412031F782D12049DE50A48
:100812002430FBE4FD7F0A0208BA30044B782D1223
:100822000490C000C001C002C003AC0AE412032459
:100832007BCD7ACC79CC783D1200FBD003D002D0AC
:1008420001D00012000A782D12049D782D12048422
:100852008F118E108D0F8C0EE4FDFC7F0A1209FDA4
:10086200E4FF120E5A0208E5E4FFFE7D207C417887
:100872002D1204901202A14044782D120490C0005F
:10088200C001C002C003AC0AE4120324D003D002A8
:10089200D001D00012000A782D12049DE4FBFA79EF
:1008A200207841C000782D120484D000120D4EE54C
:1008B2000A2430FBE4FD7F0B120D6480267A0B7B49
:1008C20058E4FDFF120D157A0B7B667D01E4FF12E1
:1008D2000D15782D1204A900000000C201C202C247
:0608E20004C2007590F055
:0108E80022ED
:1009EB00852C11852B10852A0F85290E7D017C0006
:0209FB007F0A71
:0609FD008F0B8C0C8D0D28
:100A0300E4FFFE7DC87C42AB11AA10A90FA80E1209
:100A130002A1600D400BAD0D7A0B7B86AF0B020D6F
:100A230015AF11AE10AD0FAC0EE4FBFA79C87842E6
:100A33001200FB8F118E108D0F8C0E120358AB0713
:100A4300AA067C037DE81203EB8F827C037DE8AF6B
:100A530003AE021203EB7E007F64CFCDCFCECCCEAC
:100A63001203EB8E128F13AE02AF037C037DE812E9
:100A730003EB7E007F64CFCDCFCECCCE1203EB7ED3
:100A8300007F0ACFCDCFCECCCE1203EB8E148F15C1
:100A9300AD0DAF82EF2430FBAF0B120D64E50B04F9
:100AA300FFAD0DE5132430FB120D64E50B2402FFAB
:100AB300AD0D7B2E120D64E50B2403FFAD0DE51583
:060AC3002430FB120D645B
:010AC900220A
:100DDA00E4F50CD2B37F08120EB3C2B37F50120EE1
:100DEA00B3D2B37F05120EB3A2B3E433F50C7F146A
:030DFA00020EB333
:100D8000E4F50CF50D750C08D2B37F01120EB3C259
:100D9000B3E50DC313F50DD2B330B303430D807F1C
:0F0DA00004120EB3150CE50CD3940050DBAF0D0D
:010DAF002221
:020DB0008F0CA6
:100DB200E4F50D750D08C2B3E50C1392B37F05126D
:100DC2000EB3D2B3E50CC313F50C150DE50DD39498
:080DD2000050E37F04020EB3A0
:100B8D00E4F508FDF509F50AF52CF52BF52AF529FF
:100B9D00120DDA7FCC120DB07F44120DB0120E4142
:100BAD00120E41120DDA7FCC120DB07FBE120DB0B8
:100BBD00120D808F08120D80AD07EDFEE508FBEBE1
:100BCD00FFEDD3947F4011EFF4FFEEF4FEEF24011F
:100BDD00FFE43EFEC2038002D203AD07AC06E41271
:100BED00031FE4FBFA7980783D1200FB8F2C8E2BCE
:100BFD008D2A8C29E4FFFE7D207C41AB2CAA2BA9EC
:100C0D002AA8291200FBE4FBFAF9783F12000A8F9B
:100C1D002C8E2B8D2A8C297BCD7ACC79CC783D12DC
:0A0C2D0000FB8F2C8E2B8D2A8C29E2
:010C3700229A
:0A0EB300EFD3940040031F80F722E4
:0E0E99007FB07E15EF1FAC0670011E4C70F688
:010EA7002228
:040E3D00D2B4D2B5A4
:100E41007D05AC051DEC60107E1C7F65EF1FAA06B9
:080E510070011E4A60EC80F400
:010E59002276
:0B0EA8000000000000000000DFF62248
:100003000203C4E86480F8E933E83360110460F064
:10001300ED33EC337009E8FCE9FDEAFEEBFF220463
:1000230060DED3EB9FEA9EE99DE8C2E78CF0C2F75E
:1000330095F0400CE8CCF8E9CDF9EACEFAEBCFFB2A
:1000430012038F85D0F05804700320D5B3E80470F1
:10005300075002B2D50203CE92D5EC0460F7E4CC8C
:10006300C0E0C398F8603B94186008400DD0E0FBF3
:100073000203A6E4FBFAC9FC8028E830E406E4C9DD
:10008300FBE4CAFCE830E305E4C9CACBFCE8540747
:100093006010F8C3E913F9EA13FAEB13FBEC13FC52
:1000A300D8F130F52FC3E49CFCEF9BFFEE9AFEEDF5
:1000B30099FDD0E0FBEF4E4D4C701222DB0302039F
:1000C300CBEC2CFCEF33FFEE33FEED33FDED30E7ED
:1000D300EB0203A6EF2BFFEE3AFEED39FDD0E0FB7A
:1000E30050130BBB00030203CEED13FDEE13FEEF23
:0800F30013FFEC13FC0203A64D
:1000FB00EC4D6011E8497017ED33EC3304600DE4FF
:10010B00FCFFFEFD22E933E8330470F80203C4124E
:10011B00038F58046009E4CC24815006285009024F
:10012B0003CE2840030203CBC0E0EB4A7044B980F6
:10013B0006D0E0FB0203BAEF4E701CBD8008EBFF4C
:10014B00EAFEE9FD80EBE98DF0A4FEE5F00201E4A7
:10015B00E9CDF9EAFEEBFFEF89F0A4FCE5F0CE89DF
:10016B00F0A42EFFE435F0CD89F0A42DFEE435F09C
:10017B008067EF4E7005BD80D780C3EF8BF0A4ACCA
:10018B00F0EE8BF0A42CFCE435F0F8EF8AF0A42C05
:10019B00E5F038FCE433CB8DF0A42CFCE5F03BF818
:1001AB00EE8AF0A42CFCE5F038F8E433CF89F0A408
:1001BB002CFCE5F038CF3400CE89F0A42FFFE5F00E
:1001CB003EFEE433C98DF0A42EFEE5F039CD8AF066
:1001DB00A42FFFE5F03EFEE43DFD33D0E0FB5007DE
:1001EB000BBB000F0203CEEC2CFCEF33FFEE33FE08
:0601FB00ED33FD0203A636
:100201000203CEEC5D046005E8590470030203C4E7
:1002110012038F580460F6EC4860F2EC7004FDFEA6
:10022100FF22C860DB2481C85009C39860025006D0
:100231000203CB9850CAF582E9294B4A7005AB827B
:100241000203BA75F0007C1A7880C3EF9BEE9AED39
:1002510099400DC3EF9BFFEE9AFEED99FDE842F048
:10026100DC23ACF0D0E0FFD0E0FED0E0FDAB82209B
:10027100E7101BEB60BAEC2CFCEF33FFEE33FEED25
:1002810033FD0203A6E803F830E705C0F075F0007E
:10029100EF2FFFEE33FEED33FD40B830E7C280AA09
:1002A10074F8CC6480CCC86480C8F58204604FC304
:1002B100EB9FF5F0EA9E42F0E99D42F0E89C45F0A3
:1002C100603C501DE5825FFFE582D313CB5BCBF42D
:1002D1002B5582FB50280ABA002409B90020088056
:1002E1001DE5825BFBE582D313CF5FCFF4C3132FF0
:1002F1005582FF50090EBE00050DBD00010CC3EB78
:100301009FF5F0EA9E42F0E99D42F0E89C45F060DD
:0903110007CC4820E701B3EC22FF
:10031A0075F020800E75F010800575F0087D007E5E
:10032A00007F003392D530D503120476EC334010A7
:10033A00EF33FFEE33FEED33FDEC33FCD5F0ED2267
:0E034A00E5F0247EA2D513CC92E7CDCEFF22A3
:10035800EDD2E7CD33EC3392D524814006E4FFFE9D
:10036800FDFC22FCE4CFCECDCC24E0501174FF80FC
:10037800EDC3CC13CCCD13CDCE13CECF13CF047099
:07038800F030D5DE0204761F
:10038F00E9D2E7C933E833F892D5EDD2E7CD33ECB4
:07039F0033FC5002B2D5222D
:1003A600EC30E7100FBF000C0EBE00080DBD0004B8
:1003B6000BEB6014A2D5EB13FCED92E7FD2274FF64
:1003C600FCFDFEFF22E480F8A2D574FF13FC7D80BD
:0303D600E480EFD1
:100C44000208E9E493A3F8E493A34003F68001F2D5
:100C540008DFF48029E493A3F85407240CC8C333B1
:100C6400C4540F4420C8834004F456800146F6DF80
:100C7400E4800B0102040810204080900DFDE47E06
:100C8400019360BCA3FF543F30E509541FFEE49375
:100C9400A360010ECF54C025E060A840B8E493A33C
:100CA400FAE493A3F8E493A3C8C582C8CAC583CA67
:100CB400F0A3C8C582C8CAC583CADFE9DEE780BE1F
:010E1F0000D2
:1003D900EF8DF0A4A8F0CF8CF0A428CE8DF0A42E38
:0203E900FE22F2
:1003EB00BC000BBE0029EF8DF084FFADF022E4CCF6
:1003FB00F875F008EF2FFFEE33FEEC33FCEE9DECBF
:10040B00984005FCEE9DFE0FD5F0E9E4CEFD22ED04
:10041B00F8F5F0EE8420D21CFEADF075F008EF2F4E
:10042B00FFED33FD4007985006D5F0F222C398FD3F
:05043B000FD5F0EA22DC
:10044000C2D5EC30E709B2D5E4C39DFDE49CFCEED7
:1004500030E715B2D5E4C39FFFE49EFE1203EBC361
:10046000E49DFDE49CFC80031203EB30D507C3E45C
:060470009FFFE49EFE2246
:0E047600C3E49FFFE49EFEE49DFDE49CFC2297
:0C048400E6FC08E6FD08E6FE08E6FF22A4
:0D049000E6FB08E6F908E6FA08E6CBF822DC
:0C049D00ECF608EDF608EEF608EFF6228B
:1004A900D083D082E493F608740193F6087402931A
:0904B900F608740393F674047351
:00000001FF
